{
  "contractName": "Main",
  "abi": [
    {
      "inputs": [],
      "stateMutability": "nonpayable",
      "type": "constructor"
    },
    {
      "inputs": [
        {
          "internalType": "uint256",
          "name": "numTokens",
          "type": "uint256"
        }
      ],
      "name": "priceTokens",
      "outputs": [
        {
          "internalType": "uint256",
          "name": "",
          "type": "uint256"
        }
      ],
      "stateMutability": "nonpayable",
      "type": "function"
    },
    {
      "inputs": [
        {
          "internalType": "address",
          "name": "client",
          "type": "address"
        },
        {
          "internalType": "uint256",
          "name": "amount",
          "type": "uint256"
        }
      ],
      "name": "buyTokens",
      "outputs": [],
      "stateMutability": "payable",
      "type": "function",
      "payable": true
    },
    {
      "inputs": [
        {
          "internalType": "uint256",
          "name": "amount",
          "type": "uint256"
        }
      ],
      "name": "generetaTokens",
      "outputs": [],
      "stateMutability": "nonpayable",
      "type": "function"
    },
    {
      "inputs": [],
      "name": "getContractAddress",
      "outputs": [
        {
          "internalType": "address",
          "name": "",
          "type": "address"
        }
      ],
      "stateMutability": "view",
      "type": "function",
      "constant": true
    },
    {
      "inputs": [
        {
          "internalType": "address",
          "name": "account",
          "type": "address"
        }
      ],
      "name": "balanceAccount",
      "outputs": [
        {
          "internalType": "uint256",
          "name": "",
          "type": "uint256"
        }
      ],
      "stateMutability": "view",
      "type": "function",
      "constant": true
    },
    {
      "inputs": [],
      "name": "getTotalSupply",
      "outputs": [
        {
          "internalType": "uint256",
          "name": "",
          "type": "uint256"
        }
      ],
      "stateMutability": "view",
      "type": "function",
      "constant": true
    }
  ],
  "bytecode": "0x608060405234801561001057600080fd5b5060405161001d90610109565b610026906101bf565b604051809103906000f080158015610042573d6000803e3d6000fd5b506000806101000a81548173ffffffffffffffffffffffffffffffffffffffff021916908373ffffffffffffffffffffffffffffffffffffffff16021790555033600160006101000a81548173ffffffffffffffffffffffffffffffffffffffff021916908373ffffffffffffffffffffffffffffffffffffffff16021790555030600260006101000a81548173ffffffffffffffffffffffffffffffffffffffff021916908373ffffffffffffffffffffffffffffffffffffffff1602179055506101f2565b61160f80610ab783390190565b600082825260208201905092915050565b7f55504320436f696e000000000000000000000000000000000000000000000000600082015250565b600061015d600883610116565b915061016882610127565b602082019050919050565b7f5550420000000000000000000000000000000000000000000000000000000000600082015250565b60006101a9600383610116565b91506101b482610173565b602082019050919050565b600060408201905081810360008301526101d881610150565b905081810360208301526101eb8161019c565b9050919050565b6108b6806102016000396000f3fe6080604052600436106100555760003560e01c80630752881a1461005a57806332a2c5d0146100765780635b7c4360146100a1578063a8a2a1b1146100de578063c4e41b221461011b578063fead724014610146575b600080fd5b610074600480360381019061006f9190610588565b61016f565b005b34801561008257600080fd5b5061008b6102bb565b60405161009891906105d7565b60405180910390f35b3480156100ad57600080fd5b506100c860048036038101906100c391906105f2565b6102e5565b6040516100d5919061062e565b60405180910390f35b3480156100ea57600080fd5b5061010560048036038101906101009190610649565b610389565b604051610112919061062e565b60405180910390f35b34801561012757600080fd5b506101306103a6565b60405161013d919061062e565b60405180910390f35b34801561015257600080fd5b5061016d60048036038101906101689190610649565b61043d565b005b600061017a82610389565b9050803410156101bf576040517f08c379a00000000000000000000000000000000000000000000000000000000081526004016101b6906106d3565b60405180910390fd5b600081346101cd9190610722565b90503373ffffffffffffffffffffffffffffffffffffffff166108fc829081150290604051600060405180830381858888f19350505050158015610215573d6000803e3d6000fd5b5060008054906101000a900473ffffffffffffffffffffffffffffffffffffffff1673ffffffffffffffffffffffffffffffffffffffff1663a9059cbb85856040518363ffffffff1660e01b8152600401610271929190610756565b6020604051808303816000875af1158015610290573d6000803e3d6000fd5b505050506040513d601f19601f820116820180604052508101906102b491906107b7565b5050505050565b6000600260009054906101000a900473ffffffffffffffffffffffffffffffffffffffff16905090565b60008060009054906101000a900473ffffffffffffffffffffffffffffffffffffffff1673ffffffffffffffffffffffffffffffffffffffff166370a08231836040518263ffffffff1660e01b815260040161034191906105d7565b602060405180830381865afa15801561035e573d6000803e3d6000fd5b505050506040513d601f19601f8201168201806040525081019061038291906107f9565b9050919050565b6000670de0b6b3a76400008261039f9190610826565b9050919050565b60008060009054906101000a900473ffffffffffffffffffffffffffffffffffffffff1673ffffffffffffffffffffffffffffffffffffffff166318160ddd6040518163ffffffff1660e01b8152600401602060405180830381865afa158015610414573d6000803e3d6000fd5b505050506040513d601f19601f8201168201806040525081019061043891906107f9565b905090565b60008054906101000a900473ffffffffffffffffffffffffffffffffffffffff1673ffffffffffffffffffffffffffffffffffffffff1663b2aa9f0f600260009054906101000a900473ffffffffffffffffffffffffffffffffffffffff16836040518363ffffffff1660e01b81526004016104ba929190610756565b600060405180830381600087803b1580156104d457600080fd5b505af11580156104e8573d6000803e3d6000fd5b5050505050565b600080fd5b600073ffffffffffffffffffffffffffffffffffffffff82169050919050565b600061051f826104f4565b9050919050565b61052f81610514565b811461053a57600080fd5b50565b60008135905061054c81610526565b92915050565b6000819050919050565b61056581610552565b811461057057600080fd5b50565b6000813590506105828161055c565b92915050565b6000806040838503121561059f5761059e6104ef565b5b60006105ad8582860161053d565b92505060206105be85828601610573565b9150509250929050565b6105d181610514565b82525050565b60006020820190506105ec60008301846105c8565b92915050565b600060208284031215610608576106076104ef565b5b60006106168482850161053d565b91505092915050565b61062881610552565b82525050565b6000602082019050610643600083018461061f565b92915050565b60006020828403121561065f5761065e6104ef565b5b600061066d84828501610573565b91505092915050565b600082825260208201905092915050565b7f627579206d6f726520746f6b656e730000000000000000000000000000000000600082015250565b60006106bd600f83610676565b91506106c882610687565b602082019050919050565b600060208201905081810360008301526106ec816106b0565b9050919050565b7f4e487b7100000000000000000000000000000000000000000000000000000000600052601160045260246000fd5b600061072d82610552565b915061073883610552565b92508282101561074b5761074a6106f3565b5b828203905092915050565b600060408201905061076b60008301856105c8565b610778602083018461061f565b9392505050565b60008115159050919050565b6107948161077f565b811461079f57600080fd5b50565b6000815190506107b18161078b565b92915050565b6000602082840312156107cd576107cc6104ef565b5b60006107db848285016107a2565b91505092915050565b6000815190506107f38161055c565b92915050565b60006020828403121561080f5761080e6104ef565b5b600061081d848285016107e4565b91505092915050565b600061083182610552565b915061083c83610552565b9250817fffffffffffffffffffffffffffffffffffffffffffffffffffffffffffffffff0483118215151615610875576108746106f3565b5b82820290509291505056fea26469706673582212202b2177047188a169fa765597dc87e08fb76e23f251c12ca37bc5ce98459d57e264736f6c634300080e003360806040523480156200001157600080fd5b506040516200160f3803806200160f8339818101604052810190620000379190620002be565b81600390805190602001906200004f92919062000071565b5080600490805190602001906200006892919062000071565b505050620003a7565b8280546200007f9062000372565b90600052602060002090601f016020900481019282620000a35760008555620000ef565b82601f10620000be57805160ff1916838001178555620000ef565b82800160010185558215620000ef579182015b82811115620000ee578251825591602001919060010190620000d1565b5b509050620000fe919062000102565b5090565b5b808211156200011d57600081600090555060010162000103565b5090565b6000604051905090565b600080fd5b600080fd5b600080fd5b600080fd5b6000601f19601f8301169050919050565b7f4e487b7100000000000000000000000000000000000000000000000000000000600052604160045260246000fd5b6200018a826200013f565b810181811067ffffffffffffffff82111715620001ac57620001ab62000150565b5b80604052505050565b6000620001c162000121565b9050620001cf82826200017f565b919050565b600067ffffffffffffffff821115620001f257620001f162000150565b5b620001fd826200013f565b9050602081019050919050565b60005b838110156200022a5780820151818401526020810190506200020d565b838111156200023a576000848401525b50505050565b6000620002576200025184620001d4565b620001b5565b9050828152602081018484840111156200027657620002756200013a565b5b620002838482856200020a565b509392505050565b600082601f830112620002a357620002a262000135565b5b8151620002b584826020860162000240565b91505092915050565b60008060408385031215620002d857620002d76200012b565b5b600083015167ffffffffffffffff811115620002f957620002f862000130565b5b62000307858286016200028b565b925050602083015167ffffffffffffffff8111156200032b576200032a62000130565b5b62000339858286016200028b565b9150509250929050565b7f4e487b7100000000000000000000000000000000000000000000000000000000600052602260045260246000fd5b600060028204905060018216806200038b57607f821691505b602082108103620003a157620003a062000343565b5b50919050565b61125880620003b76000396000f3fe608060405234801561001057600080fd5b506004361061009e5760003560e01c806370a082311161006657806370a082311461015d57806395d89b411461018d578063a9059cbb146101ab578063b2aa9f0f146101db578063dd62ed3e146101f75761009e565b806306fdde03146100a3578063095ea7b3146100c157806318160ddd146100f157806323b872dd1461010f578063313ce5671461013f575b600080fd5b6100ab610227565b6040516100b89190610b39565b60405180910390f35b6100db60048036038101906100d69190610bf4565b6102b9565b6040516100e89190610c4f565b60405180910390f35b6100f96102d5565b6040516101069190610c79565b60405180910390f35b61012960048036038101906101249190610c94565b6102df565b6040516101369190610c4f565b60405180910390f35b610147610307565b6040516101549190610d03565b60405180910390f35b61017760048036038101906101729190610d1e565b610310565b6040516101849190610c79565b60405180910390f35b610195610358565b6040516101a29190610b39565b60405180910390f35b6101c560048036038101906101c09190610bf4565b6103ea565b6040516101d29190610c4f565b60405180910390f35b6101f560048036038101906101f09190610bf4565b610406565b005b610211600480360381019061020c9190610d4b565b610414565b60405161021e9190610c79565b60405180910390f35b60606003805461023690610dba565b80601f016020809104026020016040519081016040528092919081815260200182805461026290610dba565b80156102af5780601f10610284576101008083540402835291602001916102af565b820191906000526020600020905b81548152906001019060200180831161029257829003601f168201915b5050505050905090565b6000803390506102ca81858561049b565b600191505092915050565b6000600254905090565b6000803390506102f0858285610664565b6102fb8585856106f0565b60019150509392505050565b60006012905090565b60008060008373ffffffffffffffffffffffffffffffffffffffff1673ffffffffffffffffffffffffffffffffffffffff168152602001908152602001600020549050919050565b60606004805461036790610dba565b80601f016020809104026020016040519081016040528092919081815260200182805461039390610dba565b80156103e05780601f106103b5576101008083540402835291602001916103e0565b820191906000526020600020905b8154815290600101906020018083116103c357829003601f168201915b5050505050905090565b6000803390506103fb8185856106f0565b600191505092915050565b6104108282610959565b5050565b6000600160008473ffffffffffffffffffffffffffffffffffffffff1673ffffffffffffffffffffffffffffffffffffffff16815260200190815260200160002060008373ffffffffffffffffffffffffffffffffffffffff1673ffffffffffffffffffffffffffffffffffffffff16815260200190815260200160002054905092915050565b600073ffffffffffffffffffffffffffffffffffffffff168373ffffffffffffffffffffffffffffffffffffffff160361050a576040517f08c379a000000000000000000000000000000000000000000000000000000000815260040161050190610e5d565b60405180910390fd5b600073ffffffffffffffffffffffffffffffffffffffff168273ffffffffffffffffffffffffffffffffffffffff1603610579576040517f08c379a000000000000000000000000000000000000000000000000000000000815260040161057090610eef565b60405180910390fd5b80600160008573ffffffffffffffffffffffffffffffffffffffff1673ffffffffffffffffffffffffffffffffffffffff16815260200190815260200160002060008473ffffffffffffffffffffffffffffffffffffffff1673ffffffffffffffffffffffffffffffffffffffff168152602001908152602001600020819055508173ffffffffffffffffffffffffffffffffffffffff168373ffffffffffffffffffffffffffffffffffffffff167f8c5be1e5ebec7d5bd14f71427d1e84f3dd0314c0f7b2291e5b200ac8c7c3b925836040516106579190610c79565b60405180910390a3505050565b60006106708484610414565b90507fffffffffffffffffffffffffffffffffffffffffffffffffffffffffffffffff81146106ea57818110156106dc576040517f08c379a00000000000000000000000000000000000000000000000000000000081526004016106d390610f5b565b60405180910390fd5b6106e9848484840361049b565b5b50505050565b600073ffffffffffffffffffffffffffffffffffffffff168373ffffffffffffffffffffffffffffffffffffffff160361075f576040517f08c379a000000000000000000000000000000000000000000000000000000000815260040161075690610fed565b60405180910390fd5b600073ffffffffffffffffffffffffffffffffffffffff168273ffffffffffffffffffffffffffffffffffffffff16036107ce576040517f08c379a00000000000000000000000000000000000000000000000000000000081526004016107c59061107f565b60405180910390fd5b60008060008573ffffffffffffffffffffffffffffffffffffffff1673ffffffffffffffffffffffffffffffffffffffff16815260200190815260200160002054905081811015610854576040517f08c379a000000000000000000000000000000000000000000000000000000000815260040161084b90611111565b60405180910390fd5b8181036000808673ffffffffffffffffffffffffffffffffffffffff1673ffffffffffffffffffffffffffffffffffffffff16815260200190815260200160002081905550816000808573ffffffffffffffffffffffffffffffffffffffff1673ffffffffffffffffffffffffffffffffffffffff16815260200190815260200160002060008282546108e79190611160565b925050819055508273ffffffffffffffffffffffffffffffffffffffff168473ffffffffffffffffffffffffffffffffffffffff167fddf252ad1be2c89b69c2b068fc378daa952ba7f163c4a11628f55a4df523b3ef8460405161094b9190610c79565b60405180910390a350505050565b600073ffffffffffffffffffffffffffffffffffffffff168273ffffffffffffffffffffffffffffffffffffffff16036109c8576040517f08c379a00000000000000000000000000000000000000000000000000000000081526004016109bf90611202565b60405180910390fd5b80600260008282546109da9190611160565b92505081905550806000808473ffffffffffffffffffffffffffffffffffffffff1673ffffffffffffffffffffffffffffffffffffffff1681526020019081526020016000206000828254610a2f9190611160565b925050819055508173ffffffffffffffffffffffffffffffffffffffff16600073ffffffffffffffffffffffffffffffffffffffff167fddf252ad1be2c89b69c2b068fc378daa952ba7f163c4a11628f55a4df523b3ef83604051610a949190610c79565b60405180910390a35050565b600081519050919050565b600082825260208201905092915050565b60005b83811015610ada578082015181840152602081019050610abf565b83811115610ae9576000848401525b50505050565b6000601f19601f8301169050919050565b6000610b0b82610aa0565b610b158185610aab565b9350610b25818560208601610abc565b610b2e81610aef565b840191505092915050565b60006020820190508181036000830152610b538184610b00565b905092915050565b600080fd5b600073ffffffffffffffffffffffffffffffffffffffff82169050919050565b6000610b8b82610b60565b9050919050565b610b9b81610b80565b8114610ba657600080fd5b50565b600081359050610bb881610b92565b92915050565b6000819050919050565b610bd181610bbe565b8114610bdc57600080fd5b50565b600081359050610bee81610bc8565b92915050565b60008060408385031215610c0b57610c0a610b5b565b5b6000610c1985828601610ba9565b9250506020610c2a85828601610bdf565b9150509250929050565b60008115159050919050565b610c4981610c34565b82525050565b6000602082019050610c646000830184610c40565b92915050565b610c7381610bbe565b82525050565b6000602082019050610c8e6000830184610c6a565b92915050565b600080600060608486031215610cad57610cac610b5b565b5b6000610cbb86828701610ba9565b9350506020610ccc86828701610ba9565b9250506040610cdd86828701610bdf565b9150509250925092565b600060ff82169050919050565b610cfd81610ce7565b82525050565b6000602082019050610d186000830184610cf4565b92915050565b600060208284031215610d3457610d33610b5b565b5b6000610d4284828501610ba9565b91505092915050565b60008060408385031215610d6257610d61610b5b565b5b6000610d7085828601610ba9565b9250506020610d8185828601610ba9565b9150509250929050565b7f4e487b7100000000000000000000000000000000000000000000000000000000600052602260045260246000fd5b60006002820490506001821680610dd257607f821691505b602082108103610de557610de4610d8b565b5b50919050565b7f45524332303a20617070726f76652066726f6d20746865207a65726f2061646460008201527f726573732e000000000000000000000000000000000000000000000000000000602082015250565b6000610e47602583610aab565b9150610e5282610deb565b604082019050919050565b60006020820190508181036000830152610e7681610e3a565b9050919050565b7f45524332303a20617070726f766520746f20746865207a65726f20616464726560008201527f73732e0000000000000000000000000000000000000000000000000000000000602082015250565b6000610ed9602383610aab565b9150610ee482610e7d565b604082019050919050565b60006020820190508181036000830152610f0881610ecc565b9050919050565b7f45524332303a20696e73756666696369656e7420616c6c6f77616e63652e0000600082015250565b6000610f45601e83610aab565b9150610f5082610f0f565b602082019050919050565b60006020820190508181036000830152610f7481610f38565b9050919050565b7f45524332303a207472616e736665722066726f6d20746865207a65726f20616460008201527f64726573732e0000000000000000000000000000000000000000000000000000602082015250565b6000610fd7602683610aab565b9150610fe282610f7b565b604082019050919050565b6000602082019050818103600083015261100681610fca565b9050919050565b7f45524332303a207472616e7366657220746f20746865207a65726f206164647260008201527f6573732e00000000000000000000000000000000000000000000000000000000602082015250565b6000611069602483610aab565b91506110748261100d565b604082019050919050565b600060208201905081810360008301526110988161105c565b9050919050565b7f45524332303a207472616e7366657220616d6f756e742065786365656473206260008201527f616c616e63652e00000000000000000000000000000000000000000000000000602082015250565b60006110fb602783610aab565b91506111068261109f565b604082019050919050565b6000602082019050818103600083015261112a816110ee565b9050919050565b7f4e487b7100000000000000000000000000000000000000000000000000000000600052601160045260246000fd5b600061116b82610bbe565b915061117683610bbe565b9250827fffffffffffffffffffffffffffffffffffffffffffffffffffffffffffffffff038211156111ab576111aa611131565b5b828201905092915050565b7f4552433a206d696e7420746f20746865207a65726f20616464726573732e0000600082015250565b60006111ec601e83610aab565b91506111f7826111b6565b602082019050919050565b6000602082019050818103600083015261121b816111df565b905091905056fea264697066735822122025d27ffd429d7f37b9ded2a517f20ecf8cbfc1d6810b8dd2b3ba5b51f19a09a964736f6c634300080e0033",
  "immutableReferences": {},
  "source": "// SPDX-License-Identifier: GPL-3.0\r\npragma solidity ^0.8.0;\r\n\r\nimport \"./ERC20.sol\";\r\n\r\ncontract Main {\r\n\r\n    ERC20 private _token;\r\n    address private owner;\r\n    address private contractAddress;\r\n\r\n    constructor(){\r\n        _token = new ERC20(\"UPC Coin\",\"UPB\");\r\n        owner = msg.sender;\r\n        contractAddress = address(this);\r\n    }\r\n\r\n    function priceTokens(uint256 numTokens) public returns(uint256) {\r\n        return numTokens * 1 ether;\r\n    }\r\n\r\n    function buyTokens(address client, uint256 amount) public payable {\r\n        uint256 price = priceTokens(amount);\r\n        require(msg.value >= price, \"buy more tokens\");\r\n        uint256 returnValue = msg.value - price;\r\n        payable(msg.sender).transfer(returnValue);\r\n        _token.transfer(client, amount);\r\n    }\r\n\r\n    function generetaTokens(uint256 amount) public {\r\n        _token.increaseTotalSupply(contractAddress, amount);\r\n    }\r\n\r\n    function getContractAddress() public view returns(address) {\r\n        return contractAddress;\r\n    }\r\n\r\n    function balanceAccount(address account) public view returns(uint256) {\r\n        return _token.balanceOf(account);\r\n    }\r\n\r\n    function getTotalSupply() public view returns(uint256) {\r\n        return _token.totalSupply();\r\n    }\r\n\r\n}\r\n",
  "sourcePath": "D:\\Projects\\Projects UPB\\blockchain-course-2022\\src\\ethereum\\contracts\\Main.sol",
  "compiler": {
    "name": "solc",
    "version": "0.8.14+commit.80d49f37.Emscripten.clang"
  },
  "schemaVersion": "3.4.7",
  "updatedAt": "2022-07-01T02:56:54.495Z",
  "networkType": "ethereum",
  "devdoc": {
    "kind": "dev",
    "methods": {},
    "version": 1
  },
  "userdoc": {
    "kind": "user",
    "methods": {},
    "version": 1
  }
}