{
  "_format": "hh-sol-artifact-1",
  "contractName": "Lottery",
  "sourceName": "src/ethereum-hardhat/contracts/Lottery.sol",
  "abi": [
    {
      "inputs": [],
      "stateMutability": "nonpayable",
      "type": "constructor"
    },
    {
      "inputs": [],
      "name": "enter",
      "outputs": [],
      "stateMutability": "payable",
      "type": "function"
    },
    {
      "inputs": [],
      "name": "getPlayers",
      "outputs": [
        {
          "internalType": "address[]",
          "name": "",
          "type": "address[]"
        }
      ],
      "stateMutability": "view",
      "type": "function"
    },
    {
      "inputs": [],
      "name": "manager",
      "outputs": [
        {
          "internalType": "address",
          "name": "",
          "type": "address"
        }
      ],
      "stateMutability": "view",
      "type": "function"
    },
    {
      "inputs": [],
      "name": "pickWinner",
      "outputs": [],
      "stateMutability": "nonpayable",
      "type": "function"
    },
    {
      "inputs": [
        {
          "internalType": "uint256",
          "name": "",
          "type": "uint256"
        }
      ],
      "name": "players",
      "outputs": [
        {
          "internalType": "address",
          "name": "",
          "type": "address"
        }
      ],
      "stateMutability": "view",
      "type": "function"
    },
    {
      "inputs": [],
      "name": "random",
      "outputs": [
        {
          "internalType": "uint256",
          "name": "",
          "type": "uint256"
        }
      ],
      "stateMutability": "view",
      "type": "function"
    }
  ],
  "bytecode": "0x608060405234801561001057600080fd5b5033600160006101000a81548173ffffffffffffffffffffffffffffffffffffffff021916908373ffffffffffffffffffffffffffffffffffffffff160217905550610a53806100616000396000f3fe6080604052600436106100555760003560e01c8063481c6a751461005a5780635d495aea146100855780635ec01e4d1461009c5780638b5b9ccc146100c7578063e97dcb62146100f2578063f71d96cb146100fc575b600080fd5b34801561006657600080fd5b5061006f610139565b60405161007c919061079a565b60405180910390f35b34801561009157600080fd5b5061009a61015f565b005b3480156100a857600080fd5b506100b161033e565b6040516100be9190610817565b60405180910390f35b3480156100d357600080fd5b506100dc610374565b6040516100e991906107b5565b60405180910390f35b6100fa610402565b005b34801561010857600080fd5b50610123600480360381019061011e91906105ac565b6104b1565b604051610130919061079a565b60405180910390f35b600160009054906101000a900473ffffffffffffffffffffffffffffffffffffffff1681565b600160009054906101000a900473ffffffffffffffffffffffffffffffffffffffff1673ffffffffffffffffffffffffffffffffffffffff163373ffffffffffffffffffffffffffffffffffffffff16146101ef576040517f08c379a00000000000000000000000000000000000000000000000000000000081526004016101e6906107d7565b60405180910390fd5b600080805490506101fe61033e565b6102089190610934565b905060008181548110610244577f4e487b7100000000000000000000000000000000000000000000000000000000600052603260045260246000fd5b9060005260206000200160009054906101000a900473ffffffffffffffffffffffffffffffffffffffff1673ffffffffffffffffffffffffffffffffffffffff166108fc479081150290604051600060405180830381858888f193505050501580156102b4573d6000803e3d6000fd5b50600067ffffffffffffffff8111156102f6577f4e487b7100000000000000000000000000000000000000000000000000000000600052604160045260246000fd5b6040519080825280602002602001820160405280156103245781602001602082028036833780820191505090505b506000908051906020019061033a9291906104f0565b5050565b60004442600060405160200161035693929190610761565b6040516020818303038152906040528051906020012060001c905090565b606060008054806020026020016040519081016040528092919081815260200182805480156103f857602002820191906000526020600020905b8160009054906101000a900473ffffffffffffffffffffffffffffffffffffffff1673ffffffffffffffffffffffffffffffffffffffff16815260200190600101908083116103ae575b5050505050905090565b671bc16d674ec80000341161044c576040517f08c379a0000000000000000000000000000000000000000000000000000000008152600401610443906107f7565b60405180910390fd5b6000339080600181540180825580915050600190039060005260206000200160009091909190916101000a81548173ffffffffffffffffffffffffffffffffffffffff021916908373ffffffffffffffffffffffffffffffffffffffff160217905550565b600081815481106104c157600080fd5b906000526020600020016000915054906101000a900473ffffffffffffffffffffffffffffffffffffffff1681565b828054828255906000526020600020908101928215610569579160200282015b828111156105685782518260006101000a81548173ffffffffffffffffffffffffffffffffffffffff021916908373ffffffffffffffffffffffffffffffffffffffff16021790555091602001919060010190610510565b5b509050610576919061057a565b5090565b5b8082111561059357600081600090555060010161057b565b5090565b6000813590506105a681610a06565b92915050565b6000602082840312156105be57600080fd5b60006105cc84828501610597565b91505092915050565b60006105e18383610605565b60208301905092915050565b60006105f98383610623565b60208301905092915050565b61060e816108d4565b82525050565b61061d816108d4565b82525050565b61062c816108d4565b82525050565b600061063d82610857565b6106478185610887565b935061065283610832565b8060005b8381101561068357815161066a88826105d5565b97506106758361086d565b925050600181019050610656565b5085935050505092915050565b600061069b82610862565b6106a58185610898565b93506106b083610842565b8060005b838110156106e8576106c582610994565b6106cf88826105ed565b97506106da8361087a565b9250506001810190506106b4565b5085935050505092915050565b60006107026018836108a3565b915061070d826109b4565b602082019050919050565b60006107256011836108a3565b9150610730826109dd565b602082019050919050565b61074481610906565b82525050565b61075b61075682610906565b61092a565b82525050565b600061076d828661074a565b60208201915061077d828561074a565b60208201915061078d8284610690565b9150819050949350505050565b60006020820190506107af6000830184610614565b92915050565b600060208201905081810360008301526107cf8184610632565b905092915050565b600060208201905081810360008301526107f0816106f5565b9050919050565b6000602082019050818103600083015261081081610718565b9050919050565b600060208201905061082c600083018461073b565b92915050565b6000819050602082019050919050565b60008190508160005260206000209050919050565b600081519050919050565b600081549050919050565b6000602082019050919050565b6000600182019050919050565b600082825260208201905092915050565b600081905092915050565b600082825260208201905092915050565b600073ffffffffffffffffffffffffffffffffffffffff82169050919050565b60006108df826108e6565b9050919050565b600073ffffffffffffffffffffffffffffffffffffffff82169050919050565b6000819050919050565b600061092361091e836109a7565b6108b4565b9050919050565b6000819050919050565b600061093f82610906565b915061094a83610906565b92508261095a57610959610965565b5b828206905092915050565b7f4e487b7100000000000000000000000000000000000000000000000000000000600052601260045260246000fd5b60006109a08254610910565b9050919050565b60008160001c9050919050565b7f796f7520617265206e6f7420746865206d616e616765722e0000000000000000600082015250565b7f4d696e696d756d20322e31204574686572000000000000000000000000000000600082015250565b610a0f81610906565b8114610a1a57600080fd5b5056fea2646970667358221220f27d3a76e3d7ddd8ccb1a4c988b33f63d40dbae2e08d72469156d4e45b58d45264736f6c63430008040033",
  "linkReferences": {},
  "deployedLinkReferences": {}
}