{
  "contractName": "TestCollege",
  "abi": [
    {
      "inputs": [],
      "stateMutability": "nonpayable",
      "type": "constructor"
    },
    {
      "anonymous": false,
      "inputs": [
        {
          "indexed": false,
          "internalType": "string",
          "name": "name",
          "type": "string"
        },
        {
          "indexed": false,
          "internalType": "string",
          "name": "message",
          "type": "string"
        }
      ],
      "name": "messageEvent",
      "type": "event"
    },
    {
      "inputs": [
        {
          "internalType": "uint256",
          "name": "",
          "type": "uint256"
        }
      ],
      "name": "listNotes",
      "outputs": [
        {
          "internalType": "uint256",
          "name": "id",
          "type": "uint256"
        },
        {
          "internalType": "string",
          "name": "name",
          "type": "string"
        },
        {
          "internalType": "uint256",
          "name": "score",
          "type": "uint256"
        },
        {
          "internalType": "bool",
          "name": "finalized",
          "type": "bool"
        },
        {
          "internalType": "uint256",
          "name": "typeTest",
          "type": "uint256"
        }
      ],
      "stateMutability": "view",
      "type": "function",
      "constant": true
    },
    {
      "inputs": [
        {
          "components": [
            {
              "internalType": "uint256",
              "name": "id",
              "type": "uint256"
            },
            {
              "internalType": "string",
              "name": "name",
              "type": "string"
            },
            {
              "internalType": "uint256",
              "name": "score",
              "type": "uint256"
            },
            {
              "internalType": "bool",
              "name": "finalized",
              "type": "bool"
            },
            {
              "internalType": "uint256",
              "name": "typeTest",
              "type": "uint256"
            }
          ],
          "internalType": "struct TestCollege.Note",
          "name": "noteData",
          "type": "tuple"
        }
      ],
      "name": "createRevision",
      "outputs": [],
      "stateMutability": "nonpayable",
      "type": "function"
    },
    {
      "inputs": [
        {
          "internalType": "uint256",
          "name": "id",
          "type": "uint256"
        },
        {
          "internalType": "uint256",
          "name": "score",
          "type": "uint256"
        }
      ],
      "name": "finalizeReview",
      "outputs": [],
      "stateMutability": "payable",
      "type": "function",
      "payable": true
    },
    {
      "inputs": [
        {
          "internalType": "uint256",
          "name": "id",
          "type": "uint256"
        }
      ],
      "name": "request2T",
      "outputs": [],
      "stateMutability": "payable",
      "type": "function",
      "payable": true
    },
    {
      "inputs": [
        {
          "internalType": "bool",
          "name": "state",
          "type": "bool"
        }
      ],
      "name": "closeOrOpenRevisions",
      "outputs": [],
      "stateMutability": "nonpayable",
      "type": "function"
    },
    {
      "inputs": [],
      "name": "balanceOfCollege",
      "outputs": [
        {
          "internalType": "uint256",
          "name": "",
          "type": "uint256"
        }
      ],
      "stateMutability": "view",
      "type": "function",
      "constant": true
    }
  ],
  "bytecode": "0x608060405260008060146101000a81548160ff02191690831515021790555034801561002a57600080fd5b50336000806101000a81548173ffffffffffffffffffffffffffffffffffffffff021916908373ffffffffffffffffffffffffffffffffffffffff1602179055506113b48061007a6000396000f3fe6080604052600436106100555760003560e01c8063097a67ba1461005a5780631a3ff95a146100855780633f1f97f4146100a15780639afc8940146100ca578063e10be180146100e6578063f624843414610127575b600080fd5b34801561006657600080fd5b5061006f610150565b60405161007c9190610a75565b60405180910390f35b61009f600480360381019061009a9190610ad0565b6101e6565b005b3480156100ad57600080fd5b506100c860048036038101906100c39190610b35565b61042d565b005b6100e460048036038101906100df9190610b62565b6104d8565b005b3480156100f257600080fd5b5061010d60048036038101906101089190610ad0565b6106ff565b60405161011e959493929190610c4a565b60405180910390f35b34801561013357600080fd5b5061014e60048036038101906101499190610e8b565b6107ca565b005b60003373ffffffffffffffffffffffffffffffffffffffff1660008054906101000a900473ffffffffffffffffffffffffffffffffffffffff1673ffffffffffffffffffffffffffffffffffffffff16146101e0576040517f08c379a00000000000000000000000000000000000000000000000000000000081526004016101d790610f20565b60405180910390fd5b47905090565b600060149054906101000a900460ff1615610236576040517f08c379a000000000000000000000000000000000000000000000000000000000815260040161022d90610f8c565b60405180910390fd5b600a6102413461099c565b11610281576040517f08c379a00000000000000000000000000000000000000000000000000000000081526004016102789061101e565b60405180910390fd5b6000600160008381526020019081526020016000206040518060a0016040529081600082015481526020016001820180546102bb9061106d565b80601f01602080910402602001604051908101604052809291908181526020018280546102e79061106d565b80156103345780601f1061030957610100808354040283529160200191610334565b820191906000526020600020905b81548152906001019060200180831161031757829003601f168201915b50505050508152602001600282015481526020016003820160009054906101000a900460ff16151515158152602001600482015481525050905060018160800151148015610383575080606001515b6103c2576040517f08c379a00000000000000000000000000000000000000000000000000000000081526004016103b9906110ea565b60405180910390fd5b600260016000848152602001908152602001600020600401819055506000600160008481526020019081526020016000206002018190555060006001600084815260200190815260200160002060030160006101000a81548160ff0219169083151502179055505050565b3373ffffffffffffffffffffffffffffffffffffffff1660008054906101000a900473ffffffffffffffffffffffffffffffffffffffff1673ffffffffffffffffffffffffffffffffffffffff16146104bb576040517f08c379a00000000000000000000000000000000000000000000000000000000081526004016104b290610f20565b60405180910390fd5b80600060146101000a81548160ff02191690831515021790555050565b600060149054906101000a900460ff1615610528576040517f08c379a000000000000000000000000000000000000000000000000000000000815260040161051f90610f8c565b60405180910390fd5b3373ffffffffffffffffffffffffffffffffffffffff1660008054906101000a900473ffffffffffffffffffffffffffffffffffffffff1673ffffffffffffffffffffffffffffffffffffffff16146105b6576040517f08c379a00000000000000000000000000000000000000000000000000000000081526004016105ad90610f20565b60405180910390fd5b600060016000848152602001908152602001600020600401541461060f576040517f08c379a000000000000000000000000000000000000000000000000000000000815260040161060690611156565b60405180910390fd5b600180600084815260200190815260200160002060030160006101000a81548160ff021916908315150217905550600180600084815260200190815260200160002060040181905550806001600084815260200190815260200160002060020181905550605a600160008481526020019081526020016000206002015411156106fb57606460016000848152602001908152602001600020600201819055507f11672bd0f01174c0c26e70f2a39b677d213333209f7bce80f92c1894c3a2ea63600160008481526020019081526020016000206001016040516106f29190611257565b60405180910390a15b5050565b60016020528060005260406000206000915090508060000154908060010180546107289061106d565b80601f01602080910402602001604051908101604052809291908181526020018280546107549061106d565b80156107a15780601f10610776576101008083540402835291602001916107a1565b820191906000526020600020905b81548152906001019060200180831161078457829003601f168201915b5050505050908060020154908060030160009054906101000a900460ff16908060040154905085565b3373ffffffffffffffffffffffffffffffffffffffff1660008054906101000a900473ffffffffffffffffffffffffffffffffffffffff1673ffffffffffffffffffffffffffffffffffffffff1614610858576040517f08c379a000000000000000000000000000000000000000000000000000000000815260040161084f90610f20565b60405180910390fd5b600060149054906101000a900460ff16156108a8576040517f08c379a000000000000000000000000000000000000000000000000000000000815260040161089f90610f8c565b60405180910390fd5b6005816020015151116108f0576040517f08c379a00000000000000000000000000000000000000000000000000000000081526004016108e7906112fe565b60405180910390fd5b6040518060a00160405280826000015181526020018260200151815260200160008152602001600015158152602001600081525060016000836000015181526020019081526020016000206000820151816000015560208201518160010190805190602001906109619291906109b9565b506040820151816002015560608201518160030160006101000a81548160ff0219169083151502179055506080820151816004015590505050565b6000670de0b6b3a7640000826109b2919061134d565b9050919050565b8280546109c59061106d565b90600052602060002090601f0160209004810192826109e75760008555610a2e565b82601f10610a0057805160ff1916838001178555610a2e565b82800160010185558215610a2e579182015b82811115610a2d578251825591602001919060010190610a12565b5b509050610a3b9190610a3f565b5090565b5b80821115610a58576000816000905550600101610a40565b5090565b6000819050919050565b610a6f81610a5c565b82525050565b6000602082019050610a8a6000830184610a66565b92915050565b6000604051905090565b600080fd5b600080fd5b610aad81610a5c565b8114610ab857600080fd5b50565b600081359050610aca81610aa4565b92915050565b600060208284031215610ae657610ae5610a9a565b5b6000610af484828501610abb565b91505092915050565b60008115159050919050565b610b1281610afd565b8114610b1d57600080fd5b50565b600081359050610b2f81610b09565b92915050565b600060208284031215610b4b57610b4a610a9a565b5b6000610b5984828501610b20565b91505092915050565b60008060408385031215610b7957610b78610a9a565b5b6000610b8785828601610abb565b9250506020610b9885828601610abb565b9150509250929050565b600081519050919050565b600082825260208201905092915050565b60005b83811015610bdc578082015181840152602081019050610bc1565b83811115610beb576000848401525b50505050565b6000601f19601f8301169050919050565b6000610c0d82610ba2565b610c178185610bad565b9350610c27818560208601610bbe565b610c3081610bf1565b840191505092915050565b610c4481610afd565b82525050565b600060a082019050610c5f6000830188610a66565b8181036020830152610c718187610c02565b9050610c806040830186610a66565b610c8d6060830185610c3b565b610c9a6080830184610a66565b9695505050505050565b600080fd5b7f4e487b7100000000000000000000000000000000000000000000000000000000600052604160045260246000fd5b610ce182610bf1565b810181811067ffffffffffffffff82111715610d0057610cff610ca9565b5b80604052505050565b6000610d13610a90565b9050610d1f8282610cd8565b919050565b600080fd5b600080fd5b600080fd5b600067ffffffffffffffff821115610d4e57610d4d610ca9565b5b610d5782610bf1565b9050602081019050919050565b82818337600083830152505050565b6000610d86610d8184610d33565b610d09565b905082815260208101848484011115610da257610da1610d2e565b5b610dad848285610d64565b509392505050565b600082601f830112610dca57610dc9610d29565b5b8135610dda848260208601610d73565b91505092915050565b600060a08284031215610df957610df8610ca4565b5b610e0360a0610d09565b90506000610e1384828501610abb565b600083015250602082013567ffffffffffffffff811115610e3757610e36610d24565b5b610e4384828501610db5565b6020830152506040610e5784828501610abb565b6040830152506060610e6b84828501610b20565b6060830152506080610e7f84828501610abb565b60808301525092915050565b600060208284031215610ea157610ea0610a9a565b5b600082013567ffffffffffffffff811115610ebf57610ebe610a9f565b5b610ecb84828501610de3565b91505092915050565b7f596f7520617265206e6f7420746865206f776e65722e00000000000000000000600082015250565b6000610f0a601683610bad565b9150610f1582610ed4565b602082019050919050565b60006020820190508181036000830152610f3981610efd565b9050919050565b7f546865207265766973696f6e732066696e616c697a65642e0000000000000000600082015250565b6000610f76601883610bad565b9150610f8182610f40565b602082019050919050565b60006020820190508181036000830152610fa581610f69565b9050919050565b7f54686520616d6f756e742073686f756c64206265206d6f7265207468616e203160008201527f304554482e000000000000000000000000000000000000000000000000000000602082015250565b6000611008602583610bad565b915061101382610fac565b604082019050919050565b6000602082019050818103600083015261103781610ffb565b9050919050565b7f4e487b7100000000000000000000000000000000000000000000000000000000600052602260045260246000fd5b6000600282049050600182168061108557607f821691505b6020821081036110985761109761103e565b5b50919050565b7f596f7572207465737420315020776173206e6f742072657669657765642e0000600082015250565b60006110d4601e83610bad565b91506110df8261109e565b602082019050919050565b60006020820190508181036000830152611103816110c7565b9050919050565b7f596f75722074657374207761732072657669657765642e000000000000000000600082015250565b6000611140601783610bad565b915061114b8261110a565b602082019050919050565b6000602082019050818103600083015261116f81611133565b9050919050565b60008190508160005260206000209050919050565b600081546111988161106d565b6111a28186610bad565b945060018216600081146111bd57600181146111cf57611202565b60ff1983168652602086019350611202565b6111d885611176565b60005b838110156111fa578154818901526001820191506020810190506111db565b808801955050505b50505092915050565b7f436f6e67726174756c6174696f6e732e00000000000000000000000000000000600082015250565b6000611241601083610bad565b915061124c8261120b565b602082019050919050565b60006040820190508181036000830152611271818461118b565b9050818103602083015261128481611234565b905092915050565b7f546865206e616d65206f662073747564656e742073686f756c64206265206d6f60008201527f7265207468616e2e000000000000000000000000000000000000000000000000602082015250565b60006112e8602883610bad565b91506112f38261128c565b604082019050919050565b60006020820190508181036000830152611317816112db565b9050919050565b7f4e487b7100000000000000000000000000000000000000000000000000000000600052601260045260246000fd5b600061135882610a5c565b915061136383610a5c565b9250826113735761137261131e565b5b82820490509291505056fea26469706673582212203616ab24c707d1dc03f3097885ee477b2e5baff58642ce91b6aded428bc52f6e64736f6c634300080e0033",
  "immutableReferences": {},
  "source": "// SPDX-License-Identifier: GPL-3.0\r\npragma solidity ^0.8.0;\r\n\r\ncontract TestCollege {\r\n\r\n    struct Note {\r\n        uint id;\r\n        string name;\r\n        uint score;\r\n        bool finalized;\r\n        uint typeTest;\r\n    }\r\n\r\n    address private proffesorAddress;\r\n    bool private revisionsClosed = false;\r\n\r\n    event messageEvent(string name, string message);\r\n\r\n    mapping(uint => Note) public listNotes;\r\n\r\n    constructor() {\r\n        proffesorAddress = msg.sender;\r\n    }\r\n\r\n    /**\r\n     * @dev create new Note and add in listNotes\r\n     * @param noteData new Note object\r\n     */\r\n    function createRevision(Note memory noteData) public onlyProffesor closedRevisions {\r\n        require(bytes(noteData.name).length > 5, \"The name of student should be more than.\");\r\n        listNotes[noteData.id] = Note(noteData.id, noteData.name, 0, false, 0);\r\n    }\r\n\r\n    /**\r\n     * @dev Proffesor can finalize revision for one student\r\n     * @param id of student, score of student\r\n     */\r\n    function finalizeReview(uint id, uint score) public payable closedRevisions onlyProffesor {\r\n        require(listNotes[id].typeTest == 0, \"Your test was reviewed.\");\r\n        listNotes[id].finalized = true;\r\n        listNotes[id].typeTest = 1;\r\n        listNotes[id].score = score;\r\n        if (listNotes[id].score > 90) {\r\n            listNotes[id].score = 100;\r\n            emit messageEvent(listNotes[id].name, \"Congratulations.\");\r\n        }\r\n    }\r\n\r\n    /**\r\n     * @dev Student can request 2T test\r\n     * @param id of student\r\n     */\r\n    function request2T(uint id) public payable closedRevisions {\r\n        require(convertWeiToEther(msg.value) > 10, \"The amount should be more than 10ETH.\");\r\n        Note memory noteData = listNotes[id];\r\n        require(noteData.typeTest == 1 && noteData.finalized, \"Your test 1P was not reviewed.\");\r\n        listNotes[id].typeTest = 2;\r\n        listNotes[id].score = 0;\r\n        listNotes[id].finalized = false;\r\n    }\r\n\r\n    /**\r\n     * @dev Proffesor can open and close revisions process\r\n     * @param state of revisions process\r\n     */\r\n    function closeOrOpenRevisions(bool state) public onlyProffesor {\r\n        revisionsClosed = state;\r\n    }\r\n\r\n    /**\r\n     * @dev Proffesor can see total balance of college\r\n     * @return balance of college\r\n     */\r\n    function balanceOfCollege() public view onlyProffesor returns (uint){\r\n        return address(this).balance;\r\n    }\r\n\r\n    /**\r\n     * @dev convert wei to ether\r\n     * @param amountInWei value in wei to convert\r\n     * @return param value in ether format\r\n     */\r\n    function convertWeiToEther(uint amountInWei) private pure returns (uint) {\r\n        return amountInWei / 1 ether;\r\n    }\r\n\r\n    /**\r\n     * @dev convert ether to wei\r\n     * @param amountInEther value in ether to convert\r\n     * @return param value in wei format\r\n     */\r\n    function convertEtherToWei(uint amountInEther) private pure returns (uint) {\r\n        return amountInEther * 1 ether;\r\n    }\r\n\r\n    // Modifier to allow just proffesor can do something\r\n    modifier onlyProffesor() {\r\n        require(proffesorAddress == msg.sender, \"You are not the owner.\");\r\n        _;\r\n    }\r\n\r\n    // Modifier to verify is revisions process is open or close\r\n    modifier closedRevisions() {\r\n        require(!revisionsClosed, \"The revisions finalized.\");\r\n        _;\r\n    }\r\n\r\n}\r\n",
  "sourcePath": "C:\\Users\\Ricardo\\Desktop\\New folder\\contracts\\TestCollege.sol",
  "compiler": {
    "name": "solc",
    "version": "0.8.14+commit.80d49f37.Emscripten.clang"
  },
  "schemaVersion": "3.4.7",
  "updatedAt": "2022-06-20T10:11:34.816Z",
  "networkType": "ethereum",
  "devdoc": {
    "kind": "dev",
    "methods": {
      "balanceOfCollege()": {
        "details": "Proffesor can see total balance of college",
        "returns": {
          "_0": "balance of college"
        }
      },
      "closeOrOpenRevisions(bool)": {
        "details": "Proffesor can open and close revisions process",
        "params": {
          "state": "of revisions process"
        }
      },
      "createRevision((uint256,string,uint256,bool,uint256))": {
        "details": "create new Note and add in listNotes",
        "params": {
          "noteData": "new Note object"
        }
      },
      "finalizeReview(uint256,uint256)": {
        "details": "Proffesor can finalize revision for one student",
        "params": {
          "id": "of student, score of student"
        }
      },
      "request2T(uint256)": {
        "details": "Student can request 2T test",
        "params": {
          "id": "of student"
        }
      }
    },
    "version": 1
  },
  "userdoc": {
    "kind": "user",
    "methods": {},
    "version": 1
  }
}