{
  "contractName": "TestBank",
  "abi": [
    {
      "inputs": [],
      "stateMutability": "nonpayable",
      "type": "constructor"
    },
    {
      "anonymous": false,
      "inputs": [
        {
          "indexed": false,
          "internalType": "uint256",
          "name": "id",
          "type": "uint256"
        },
        {
          "indexed": false,
          "internalType": "string",
          "name": "name",
          "type": "string"
        },
        {
          "indexed": false,
          "internalType": "uint256",
          "name": "amount",
          "type": "uint256"
        }
      ],
      "name": "clientDeposit",
      "type": "event"
    },
    {
      "inputs": [
        {
          "internalType": "uint256",
          "name": "",
          "type": "uint256"
        }
      ],
      "name": "listAccounts",
      "outputs": [
        {
          "internalType": "uint256",
          "name": "id",
          "type": "uint256"
        },
        {
          "internalType": "string",
          "name": "name",
          "type": "string"
        },
        {
          "internalType": "uint256",
          "name": "balance",
          "type": "uint256"
        },
        {
          "internalType": "bool",
          "name": "enable",
          "type": "bool"
        }
      ],
      "stateMutability": "view",
      "type": "function",
      "constant": true
    },
    {
      "inputs": [
        {
          "components": [
            {
              "internalType": "uint256",
              "name": "id",
              "type": "uint256"
            },
            {
              "internalType": "string",
              "name": "name",
              "type": "string"
            },
            {
              "internalType": "uint256",
              "name": "balance",
              "type": "uint256"
            },
            {
              "internalType": "bool",
              "name": "enable",
              "type": "bool"
            }
          ],
          "internalType": "struct TestBank.Account",
          "name": "accountData",
          "type": "tuple"
        }
      ],
      "name": "createAccount",
      "outputs": [],
      "stateMutability": "nonpayable",
      "type": "function"
    },
    {
      "inputs": [
        {
          "internalType": "uint256",
          "name": "id",
          "type": "uint256"
        }
      ],
      "name": "depositMoney",
      "outputs": [],
      "stateMutability": "payable",
      "type": "function",
      "payable": true
    },
    {
      "inputs": [
        {
          "internalType": "uint256",
          "name": "id",
          "type": "uint256"
        },
        {
          "internalType": "uint256",
          "name": "amount",
          "type": "uint256"
        }
      ],
      "name": "redrawMoney",
      "outputs": [],
      "stateMutability": "payable",
      "type": "function",
      "payable": true
    },
    {
      "inputs": [
        {
          "internalType": "uint256",
          "name": "id",
          "type": "uint256"
        }
      ],
      "name": "blockAccount",
      "outputs": [],
      "stateMutability": "nonpayable",
      "type": "function"
    },
    {
      "inputs": [
        {
          "internalType": "bool",
          "name": "state",
          "type": "bool"
        }
      ],
      "name": "closeOrOpenBank",
      "outputs": [],
      "stateMutability": "nonpayable",
      "type": "function"
    },
    {
      "inputs": [],
      "name": "withdrawAllMoney",
      "outputs": [],
      "stateMutability": "nonpayable",
      "type": "function"
    }
  ],
  "bytecode": "0x608060405260008060146101000a81548160ff02191690831515021790555034801561002a57600080fd5b50336000806101000a81548173ffffffffffffffffffffffffffffffffffffffff021916908373ffffffffffffffffffffffffffffffffffffffff1602179055506115c58061007a6000396000f3fe6080604052600436106100705760003560e01c80635f3501eb1161004e5780635f3501eb146100f5578063913a9bfc1461011e578063ae18c52b1461013a578063e8dc04fa1461015657610070565b80631b52b9de14610075578063429f3b481461008c57806347f5b93d146100b5575b600080fd5b34801561008157600080fd5b5061008a61017f565b005b34801561009857600080fd5b506100b360048036038101906100ae9190610c93565b610256565b005b3480156100c157600080fd5b506100dc60048036038101906100d79190610c93565b610366565b6040516100ec9493929190610d83565b60405180910390f35b34801561010157600080fd5b5061011c60048036038101906101179190610fce565b61042b565b005b61013860048036038101906101339190611017565b6105ec565b005b610154600480360381019061014f9190610c93565b61082b565b005b34801561016257600080fd5b5061017d60048036038101906101789190611057565b610ac1565b005b3373ffffffffffffffffffffffffffffffffffffffff1660008054906101000a900473ffffffffffffffffffffffffffffffffffffffff1673ffffffffffffffffffffffffffffffffffffffff161461020d576040517f08c379a0000000000000000000000000000000000000000000000000000000008152600401610204906110d0565b60405180910390fd5b3373ffffffffffffffffffffffffffffffffffffffff166108fc479081150290604051600060405180830381858888f19350505050158015610253573d6000803e3d6000fd5b50565b3373ffffffffffffffffffffffffffffffffffffffff1660008054906101000a900473ffffffffffffffffffffffffffffffffffffffff1673ffffffffffffffffffffffffffffffffffffffff16146102e4576040517f08c379a00000000000000000000000000000000000000000000000000000000081526004016102db906110d0565b60405180910390fd5b600060149054906101000a900460ff1615610334576040517f08c379a000000000000000000000000000000000000000000000000000000000815260040161032b9061113c565b60405180910390fd5b60006001600083815260200190815260200160002060030160006101000a81548160ff02191690831515021790555050565b600160205280600052604060002060009150905080600001549080600101805461038f9061118b565b80601f01602080910402602001604051908101604052809291908181526020018280546103bb9061118b565b80156104085780601f106103dd57610100808354040283529160200191610408565b820191906000526020600020905b8154815290600101906020018083116103eb57829003601f168201915b5050505050908060020154908060030160009054906101000a900460ff16905084565b3373ffffffffffffffffffffffffffffffffffffffff1660008054906101000a900473ffffffffffffffffffffffffffffffffffffffff1673ffffffffffffffffffffffffffffffffffffffff16146104b9576040517f08c379a00000000000000000000000000000000000000000000000000000000081526004016104b0906110d0565b60405180910390fd5b600060149054906101000a900460ff1615610509576040517f08c379a00000000000000000000000000000000000000000000000000000000081526004016105009061113c565b60405180910390fd5b600581602001515111610551576040517f08c379a00000000000000000000000000000000000000000000000000000000081526004016105489061122e565b60405180910390fd5b60405180608001604052808260000151815260200182602001518152602001600081526020016001151581525060016000836000015181526020019081526020016000206000820151816000015560208201518160010190805190602001906105bb929190610ba6565b506040820151816002015560608201518160030160006101000a81548160ff02191690831515021790555090505050565b600060149054906101000a900460ff161561063c576040517f08c379a00000000000000000000000000000000000000000000000000000000081526004016106339061113c565b60405180910390fd5b600060016000848152602001908152602001600020604051806080016040529081600082015481526020016001820180546106769061118b565b80601f01602080910402602001604051908101604052809291908181526020018280546106a29061118b565b80156106ef5780601f106106c4576101008083540402835291602001916106ef565b820191906000526020600020905b8154815290600101906020018083116106d257829003601f168201915b50505050508152602001600282015481526020016003820160009054906101000a900460ff16151515158152505090508060600151610763576040517f08c379a000000000000000000000000000000000000000000000000000000000815260040161075a9061129a565b60405180910390fd5b80604001518211156107aa576040517f08c379a00000000000000000000000000000000000000000000000000000000081526004016107a19061132c565b60405180910390fd5b816001600085815260200190815260200160002060020160008282546107d0919061137b565b925050819055503373ffffffffffffffffffffffffffffffffffffffff166108fc6107fa84610b6c565b9081150290604051600060405180830381858888f19350505050158015610825573d6000803e3d6000fd5b50505050565b600060149054906101000a900460ff161561087b576040517f08c379a00000000000000000000000000000000000000000000000000000000081526004016108729061113c565b60405180910390fd5b600060016000838152602001908152602001600020604051806080016040529081600082015481526020016001820180546108b59061118b565b80601f01602080910402602001604051908101604052809291908181526020018280546108e19061118b565b801561092e5780601f106109035761010080835404028352916020019161092e565b820191906000526020600020905b81548152906001019060200180831161091157829003601f168201915b50505050508152602001600282015481526020016003820160009054906101000a900460ff161515151581525050905080606001516109a2576040517f08c379a00000000000000000000000000000000000000000000000000000000081526004016109999061129a565b60405180910390fd5b60006109ad34610b89565b9050600281116109f2576040517f08c379a00000000000000000000000000000000000000000000000000000000081526004016109e990611421565b60405180910390fd5b80600160008581526020019081526020016000206002016000828254610a189190611441565b925050819055507f0b0e6eb2d8b92c18ec783003047b570bd400b8a471483d527026ac6c813269558260000151836020015183604051610a5a93929190611497565b60405180910390a1600a811115610abc573373ffffffffffffffffffffffffffffffffffffffff166108fc610a8f6002610b6c565b9081150290604051600060405180830381858888f19350505050158015610aba573d6000803e3d6000fd5b505b505050565b3373ffffffffffffffffffffffffffffffffffffffff1660008054906101000a900473ffffffffffffffffffffffffffffffffffffffff1673ffffffffffffffffffffffffffffffffffffffff1614610b4f576040517f08c379a0000000000000000000000000000000000000000000000000000000008152600401610b46906110d0565b60405180910390fd5b80600060146101000a81548160ff02191690831515021790555050565b6000670de0b6b3a764000082610b8291906114d5565b9050919050565b6000670de0b6b3a764000082610b9f919061155e565b9050919050565b828054610bb29061118b565b90600052602060002090601f016020900481019282610bd45760008555610c1b565b82601f10610bed57805160ff1916838001178555610c1b565b82800160010185558215610c1b579182015b82811115610c1a578251825591602001919060010190610bff565b5b509050610c289190610c2c565b5090565b5b80821115610c45576000816000905550600101610c2d565b5090565b6000604051905090565b600080fd5b600080fd5b6000819050919050565b610c7081610c5d565b8114610c7b57600080fd5b50565b600081359050610c8d81610c67565b92915050565b600060208284031215610ca957610ca8610c53565b5b6000610cb784828501610c7e565b91505092915050565b610cc981610c5d565b82525050565b600081519050919050565b600082825260208201905092915050565b60005b83811015610d09578082015181840152602081019050610cee565b83811115610d18576000848401525b50505050565b6000601f19601f8301169050919050565b6000610d3a82610ccf565b610d448185610cda565b9350610d54818560208601610ceb565b610d5d81610d1e565b840191505092915050565b60008115159050919050565b610d7d81610d68565b82525050565b6000608082019050610d986000830187610cc0565b8181036020830152610daa8186610d2f565b9050610db96040830185610cc0565b610dc66060830184610d74565b95945050505050565b600080fd5b7f4e487b7100000000000000000000000000000000000000000000000000000000600052604160045260246000fd5b610e0c82610d1e565b810181811067ffffffffffffffff82111715610e2b57610e2a610dd4565b5b80604052505050565b6000610e3e610c49565b9050610e4a8282610e03565b919050565b600080fd5b600080fd5b600080fd5b600067ffffffffffffffff821115610e7957610e78610dd4565b5b610e8282610d1e565b9050602081019050919050565b82818337600083830152505050565b6000610eb1610eac84610e5e565b610e34565b905082815260208101848484011115610ecd57610ecc610e59565b5b610ed8848285610e8f565b509392505050565b600082601f830112610ef557610ef4610e54565b5b8135610f05848260208601610e9e565b91505092915050565b610f1781610d68565b8114610f2257600080fd5b50565b600081359050610f3481610f0e565b92915050565b600060808284031215610f5057610f4f610dcf565b5b610f5a6080610e34565b90506000610f6a84828501610c7e565b600083015250602082013567ffffffffffffffff811115610f8e57610f8d610e4f565b5b610f9a84828501610ee0565b6020830152506040610fae84828501610c7e565b6040830152506060610fc284828501610f25565b60608301525092915050565b600060208284031215610fe457610fe3610c53565b5b600082013567ffffffffffffffff81111561100257611001610c58565b5b61100e84828501610f3a565b91505092915050565b6000806040838503121561102e5761102d610c53565b5b600061103c85828601610c7e565b925050602061104d85828601610c7e565b9150509250929050565b60006020828403121561106d5761106c610c53565b5b600061107b84828501610f25565b91505092915050565b7f596f7520617265206e6f7420746865206f776e65722e00000000000000000000600082015250565b60006110ba601683610cda565b91506110c582611084565b602082019050919050565b600060208201905081810360008301526110e9816110ad565b9050919050565b7f5468652062616e6b20697320636c6f7365642e00000000000000000000000000600082015250565b6000611126601383610cda565b9150611131826110f0565b602082019050919050565b6000602082019050818103600083015261115581611119565b9050919050565b7f4e487b7100000000000000000000000000000000000000000000000000000000600052602260045260246000fd5b600060028204905060018216806111a357607f821691505b6020821081036111b6576111b561115c565b5b50919050565b7f546865206e616d65206f66206163636f756e742073686f756c64206265206d6f60008201527f7265207468616e20352e00000000000000000000000000000000000000000000602082015250565b6000611218602a83610cda565b9150611223826111bc565b604082019050919050565b600060208201905081810360008301526112478161120b565b9050919050565b7f596f7572206163636f756e7420697320626c6f636b65642e0000000000000000600082015250565b6000611284601883610cda565b915061128f8261124e565b602082019050919050565b600060208201905081810360008301526112b381611277565b9050919050565b7f596f7520646f6e2774206861766520656e6f756768206d6f6e657920696e207960008201527f6f7572206163636f756e7420746f207265647261772e00000000000000000000602082015250565b6000611316603683610cda565b9150611321826112ba565b604082019050919050565b6000602082019050818103600083015261134581611309565b9050919050565b7f4e487b7100000000000000000000000000000000000000000000000000000000600052601160045260246000fd5b600061138682610c5d565b915061139183610c5d565b9250828210156113a4576113a361134c565b5b828203905092915050565b7f546865206d696e696d756e206465706f7369742073686f756c64206265206d6f60008201527f7265207468616e2032204554482e000000000000000000000000000000000000602082015250565b600061140b602e83610cda565b9150611416826113af565b604082019050919050565b6000602082019050818103600083015261143a816113fe565b9050919050565b600061144c82610c5d565b915061145783610c5d565b9250827fffffffffffffffffffffffffffffffffffffffffffffffffffffffffffffffff0382111561148c5761148b61134c565b5b828201905092915050565b60006060820190506114ac6000830186610cc0565b81810360208301526114be8185610d2f565b90506114cd6040830184610cc0565b949350505050565b60006114e082610c5d565b91506114eb83610c5d565b9250817fffffffffffffffffffffffffffffffffffffffffffffffffffffffffffffffff04831182151516156115245761152361134c565b5b828202905092915050565b7f4e487b7100000000000000000000000000000000000000000000000000000000600052601260045260246000fd5b600061156982610c5d565b915061157483610c5d565b9250826115845761158361152f565b5b82820490509291505056fea2646970667358221220d15f8d7edbe0331bfdc63a5c2705bf73edd55d4f87cdb8145c4ea470005ba4bb64736f6c634300080e0033",
  "immutableReferences": {},
  "source": "// SPDX-License-Identifier: GPL-3.0\r\npragma solidity ^0.8.0;\r\n\r\ncontract TestBank {\r\n\r\n    struct Account {\r\n        uint id;\r\n        string name;\r\n        uint balance;\r\n        bool enable;\r\n    }\r\n\r\n    address private ownerAddress;\r\n    bool private bankClosed = false;\r\n\r\n    event clientDeposit(uint id, string name, uint amount);\r\n\r\n    mapping(uint => Account) public listAccounts;\r\n\r\n    constructor() {\r\n        ownerAddress = msg.sender;\r\n    }\r\n\r\n    /**\r\n     * @dev create account of client for bank\r\n     * @param accountData data of new account\r\n     */\r\n    function createAccount(Account memory accountData) public onlyOwner closedBank {\r\n        require(bytes(accountData.name).length > 5, \"The name of account should be more than 5.\");\r\n        listAccounts[accountData.id] = Account(accountData.id, accountData.name, 0, true);\r\n    }\r\n\r\n    /**\r\n     * @dev allow to user deposit money to his account\r\n     * @param id of account\r\n     */\r\n    function depositMoney(uint id) public payable closedBank {\r\n        Account memory accountData = listAccounts[id];\r\n        require(accountData.enable, \"Your account is blocked.\");\r\n        uint amount = convertWeiToEther(msg.value);\r\n        require(amount > 2, \"The minimun deposit should be more than 2 ETH.\");\r\n        listAccounts[id].balance += amount;\r\n        emit clientDeposit(accountData.id, accountData.name, amount);\r\n        if (amount > 10) {\r\n            payable(msg.sender).transfer(convertEtherToWei(2));\r\n        }\r\n    }\r\n\r\n    /**\r\n     * @dev allow to user withdraw his money of his account\r\n     * @param id of account, amount to withdraw\r\n     */\r\n    function redrawMoney(uint id, uint amount) public payable closedBank {\r\n        Account memory accountData = listAccounts[id];\r\n        require(accountData.enable, \"Your account is blocked.\");\r\n        require(amount <= accountData.balance, \"You don't have enough money in your account to redraw.\");\r\n        listAccounts[id].balance -= amount;\r\n        payable(msg.sender).transfer(convertEtherToWei(amount));\r\n    }\r\n\r\n    /**\r\n     * @dev Manager of bank can lock one specific account\r\n     * @param id of account to lock\r\n     */\r\n    function blockAccount(uint id) public onlyOwner closedBank {\r\n        listAccounts[id].enable = false;\r\n    }\r\n\r\n    /**\r\n     * @dev Manager can open or close bank\r\n     * @param state true or false\r\n     */\r\n    function closeOrOpenBank(bool state) public onlyOwner {\r\n        bankClosed = state;\r\n    }\r\n\r\n    /**\r\n     * @dev Manager can withdraw all money of the bank\r\n     */\r\n    function withdrawAllMoney() public onlyOwner {\r\n        payable(msg.sender).transfer(address(this).balance);\r\n    }\r\n\r\n    /**\r\n     * @dev convert wei to ether\r\n     * @param amountInWei value in wei to convert\r\n     * @return param value in ether format\r\n     */\r\n    function convertWeiToEther(uint amountInWei) private pure returns (uint) {\r\n        return amountInWei / 1 ether;\r\n    }\r\n\r\n    /**\r\n     * @dev convert ether to wei\r\n     * @param amountInEther value in ether to convert\r\n     * @return param value in wei format\r\n     */\r\n    function convertEtherToWei(uint amountInEther) private pure returns (uint) {\r\n        return amountInEther * 1 ether;\r\n    }\r\n\r\n    // Modifier to allow just manager to do something\r\n    modifier onlyOwner() {\r\n        require(ownerAddress == msg.sender, \"You are not the owner.\");\r\n        _;\r\n    }\r\n\r\n    // Modifier to verify if bank is close or open\r\n    modifier closedBank() {\r\n        require(!bankClosed, \"The bank is closed.\");\r\n        _;\r\n    }\r\n\r\n}\r\n",
  "sourcePath": "C:\\Users\\Ricardo\\Desktop\\New folder\\contracts\\TestBank.sol",
  "compiler": {
    "name": "solc",
    "version": "0.8.14+commit.80d49f37.Emscripten.clang"
  },
  "schemaVersion": "3.4.7",
  "updatedAt": "2022-06-20T10:11:33.151Z",
  "networkType": "ethereum",
  "devdoc": {
    "kind": "dev",
    "methods": {
      "blockAccount(uint256)": {
        "details": "Manager of bank can lock one specific account",
        "params": {
          "id": "of account to lock"
        }
      },
      "closeOrOpenBank(bool)": {
        "details": "Manager can open or close bank",
        "params": {
          "state": "true or false"
        }
      },
      "createAccount((uint256,string,uint256,bool))": {
        "details": "create account of client for bank",
        "params": {
          "accountData": "data of new account"
        }
      },
      "depositMoney(uint256)": {
        "details": "allow to user deposit money to his account",
        "params": {
          "id": "of account"
        }
      },
      "redrawMoney(uint256,uint256)": {
        "details": "allow to user withdraw his money of his account",
        "params": {
          "id": "of account, amount to withdraw"
        }
      },
      "withdrawAllMoney()": {
        "details": "Manager can withdraw all money of the bank"
      }
    },
    "version": 1
  },
  "userdoc": {
    "kind": "user",
    "methods": {},
    "version": 1
  }
}