{
  "contractName": "TestAmazon",
  "abi": [
    {
      "inputs": [],
      "stateMutability": "nonpayable",
      "type": "constructor"
    },
    {
      "anonymous": false,
      "inputs": [
        {
          "indexed": false,
          "internalType": "string",
          "name": "name",
          "type": "string"
        },
        {
          "indexed": false,
          "internalType": "address",
          "name": "wallet",
          "type": "address"
        },
        {
          "indexed": false,
          "internalType": "uint256",
          "name": "quantity",
          "type": "uint256"
        }
      ],
      "name": "clientBuy",
      "type": "event"
    },
    {
      "inputs": [
        {
          "internalType": "uint256",
          "name": "",
          "type": "uint256"
        }
      ],
      "name": "listProducts",
      "outputs": [
        {
          "internalType": "uint256",
          "name": "id",
          "type": "uint256"
        },
        {
          "internalType": "string",
          "name": "name",
          "type": "string"
        },
        {
          "internalType": "uint256",
          "name": "stock",
          "type": "uint256"
        },
        {
          "internalType": "uint256",
          "name": "price",
          "type": "uint256"
        }
      ],
      "stateMutability": "view",
      "type": "function",
      "constant": true
    },
    {
      "inputs": [
        {
          "components": [
            {
              "internalType": "uint256",
              "name": "id",
              "type": "uint256"
            },
            {
              "internalType": "string",
              "name": "name",
              "type": "string"
            },
            {
              "internalType": "uint256",
              "name": "stock",
              "type": "uint256"
            },
            {
              "internalType": "uint256",
              "name": "price",
              "type": "uint256"
            }
          ],
          "internalType": "struct TestAmazon.Product",
          "name": "productData",
          "type": "tuple"
        }
      ],
      "name": "addProduct",
      "outputs": [],
      "stateMutability": "nonpayable",
      "type": "function"
    },
    {
      "inputs": [
        {
          "internalType": "uint256",
          "name": "id",
          "type": "uint256"
        },
        {
          "internalType": "uint256",
          "name": "stock",
          "type": "uint256"
        }
      ],
      "name": "addQuantity",
      "outputs": [],
      "stateMutability": "nonpayable",
      "type": "function"
    },
    {
      "inputs": [
        {
          "internalType": "bool",
          "name": "state",
          "type": "bool"
        }
      ],
      "name": "closeOrOpenAmazon",
      "outputs": [],
      "stateMutability": "nonpayable",
      "type": "function"
    },
    {
      "inputs": [
        {
          "internalType": "uint256",
          "name": "id",
          "type": "uint256"
        },
        {
          "internalType": "uint256",
          "name": "quantity",
          "type": "uint256"
        }
      ],
      "name": "buyProduct",
      "outputs": [],
      "stateMutability": "payable",
      "type": "function",
      "payable": true
    },
    {
      "inputs": [],
      "name": "withdrawAllMoney",
      "outputs": [],
      "stateMutability": "nonpayable",
      "type": "function"
    }
  ],
  "bytecode": "0x608060405260008060146101000a81548160ff02191690831515021790555034801561002a57600080fd5b50336000806101000a81548173ffffffffffffffffffffffffffffffffffffffff021916908373ffffffffffffffffffffffffffffffffffffffff16021790555061131b8061007a6000396000f3fe6080604052600436106100555760003560e01c80631b52b9de1461005a57806334d5336614610071578063408b464b146100b157806353b62866146100da5780639d64871c146100f6578063bc32caad1461011f575b600080fd5b34801561006657600080fd5b5061006f610148565b005b34801561007d57600080fd5b5061009860048036038101906100939190610a49565b61026f565b6040516100a89493929190610b1e565b60405180910390f35b3480156100bd57600080fd5b506100d860048036038101906100d39190610d3d565b610327565b005b6100f460048036038101906100ef9190610d86565b6104d3565b005b34801561010257600080fd5b5061011d60048036038101906101189190610d86565b610768565b005b34801561012b57600080fd5b5061014660048036038101906101419190610dfe565b610877565b005b3373ffffffffffffffffffffffffffffffffffffffff1660008054906101000a900473ffffffffffffffffffffffffffffffffffffffff1673ffffffffffffffffffffffffffffffffffffffff16146101d6576040517f08c379a00000000000000000000000000000000000000000000000000000000081526004016101cd90610e77565b60405180910390fd5b600060149054906101000a900460ff1615610226576040517f08c379a000000000000000000000000000000000000000000000000000000000815260040161021d90610ee3565b60405180910390fd5b3373ffffffffffffffffffffffffffffffffffffffff166108fc479081150290604051600060405180830381858888f1935050505015801561026c573d6000803e3d6000fd5b50565b600160205280600052604060002060009150905080600001549080600101805461029890610f32565b80601f01602080910402602001604051908101604052809291908181526020018280546102c490610f32565b80156103115780601f106102e657610100808354040283529160200191610311565b820191906000526020600020905b8154815290600101906020018083116102f457829003601f168201915b5050505050908060020154908060030154905084565b3373ffffffffffffffffffffffffffffffffffffffff1660008054906101000a900473ffffffffffffffffffffffffffffffffffffffff1673ffffffffffffffffffffffffffffffffffffffff16146103b5576040517f08c379a00000000000000000000000000000000000000000000000000000000081526004016103ac90610e77565b60405180910390fd5b600060149054906101000a900460ff1615610405576040517f08c379a00000000000000000000000000000000000000000000000000000000081526004016103fc90610ee3565b60405180910390fd5b60058160200151511161044d576040517f08c379a000000000000000000000000000000000000000000000000000000000815260040161044490610fd5565b60405180910390fd5b6040518060800160405280826000015181526020018260200151815260200160008152602001826060015181525060016000836000015181526020019081526020016000206000820151816000015560208201518160010190805190602001906104b892919061095c565b50604082015181600201556060820151816003015590505050565b600060149054906101000a900460ff1615610523576040517f08c379a000000000000000000000000000000000000000000000000000000000815260040161051a90610ee3565b60405180910390fd5b6000600160008481526020019081526020016000206040518060800160405290816000820154815260200160018201805461055d90610f32565b80601f016020809104026020016040519081016040528092919081815260200182805461058990610f32565b80156105d65780601f106105ab576101008083540402835291602001916105d6565b820191906000526020600020905b8154815290600101906020018083116105b957829003601f168201915b505050505081526020016002820154815260200160038201548152505090506105fe34610922565b81606001518361060e9190611024565b111561064f576040517f08c379a0000000000000000000000000000000000000000000000000000000008152600401610646906110ca565b60405180910390fd5b8060400151821115610696576040517f08c379a000000000000000000000000000000000000000000000000000000000815260040161068d9061115c565b60405180910390fd5b81600160008360000151815260200190815260200160002060020160008282546106c0919061117c565b925050819055507f49459a34d954bb15a30777556aa1bb797ccf585ec805324053aa26cad3c71c7f816020015133846040516106fe939291906111f1565b60405180910390a1600a821115610763573373ffffffffffffffffffffffffffffffffffffffff166108fc610736836060015161093f565b9081150290604051600060405180830381858888f19350505050158015610761573d6000803e3d6000fd5b505b505050565b3373ffffffffffffffffffffffffffffffffffffffff1660008054906101000a900473ffffffffffffffffffffffffffffffffffffffff1673ffffffffffffffffffffffffffffffffffffffff16146107f6576040517f08c379a00000000000000000000000000000000000000000000000000000000081526004016107ed90610e77565b60405180910390fd5b600060149054906101000a900460ff1615610846576040517f08c379a000000000000000000000000000000000000000000000000000000000815260040161083d90610ee3565b60405180910390fd5b8060016000848152602001908152602001600020600201600082825461086c919061122f565b925050819055505050565b3373ffffffffffffffffffffffffffffffffffffffff1660008054906101000a900473ffffffffffffffffffffffffffffffffffffffff1673ffffffffffffffffffffffffffffffffffffffff1614610905576040517f08c379a00000000000000000000000000000000000000000000000000000000081526004016108fc90610e77565b60405180910390fd5b80600060146101000a81548160ff02191690831515021790555050565b6000670de0b6b3a76400008261093891906112b4565b9050919050565b6000670de0b6b3a7640000826109559190611024565b9050919050565b82805461096890610f32565b90600052602060002090601f01602090048101928261098a57600085556109d1565b82601f106109a357805160ff19168380011785556109d1565b828001600101855582156109d1579182015b828111156109d05782518255916020019190600101906109b5565b5b5090506109de91906109e2565b5090565b5b808211156109fb5760008160009055506001016109e3565b5090565b6000604051905090565b600080fd5b600080fd5b6000819050919050565b610a2681610a13565b8114610a3157600080fd5b50565b600081359050610a4381610a1d565b92915050565b600060208284031215610a5f57610a5e610a09565b5b6000610a6d84828501610a34565b91505092915050565b610a7f81610a13565b82525050565b600081519050919050565b600082825260208201905092915050565b60005b83811015610abf578082015181840152602081019050610aa4565b83811115610ace576000848401525b50505050565b6000601f19601f8301169050919050565b6000610af082610a85565b610afa8185610a90565b9350610b0a818560208601610aa1565b610b1381610ad4565b840191505092915050565b6000608082019050610b336000830187610a76565b8181036020830152610b458186610ae5565b9050610b546040830185610a76565b610b616060830184610a76565b95945050505050565b600080fd5b7f4e487b7100000000000000000000000000000000000000000000000000000000600052604160045260246000fd5b610ba782610ad4565b810181811067ffffffffffffffff82111715610bc657610bc5610b6f565b5b80604052505050565b6000610bd96109ff565b9050610be58282610b9e565b919050565b600080fd5b600080fd5b600080fd5b600067ffffffffffffffff821115610c1457610c13610b6f565b5b610c1d82610ad4565b9050602081019050919050565b82818337600083830152505050565b6000610c4c610c4784610bf9565b610bcf565b905082815260208101848484011115610c6857610c67610bf4565b5b610c73848285610c2a565b509392505050565b600082601f830112610c9057610c8f610bef565b5b8135610ca0848260208601610c39565b91505092915050565b600060808284031215610cbf57610cbe610b6a565b5b610cc96080610bcf565b90506000610cd984828501610a34565b600083015250602082013567ffffffffffffffff811115610cfd57610cfc610bea565b5b610d0984828501610c7b565b6020830152506040610d1d84828501610a34565b6040830152506060610d3184828501610a34565b60608301525092915050565b600060208284031215610d5357610d52610a09565b5b600082013567ffffffffffffffff811115610d7157610d70610a0e565b5b610d7d84828501610ca9565b91505092915050565b60008060408385031215610d9d57610d9c610a09565b5b6000610dab85828601610a34565b9250506020610dbc85828601610a34565b9150509250929050565b60008115159050919050565b610ddb81610dc6565b8114610de657600080fd5b50565b600081359050610df881610dd2565b92915050565b600060208284031215610e1457610e13610a09565b5b6000610e2284828501610de9565b91505092915050565b7f596f7520617265206e6f7420746865206f776e65722e00000000000000000000600082015250565b6000610e61601683610a90565b9150610e6c82610e2b565b602082019050919050565b60006020820190508181036000830152610e9081610e54565b9050919050565b7f416d617a6f6e20697320636c6f7365642e000000000000000000000000000000600082015250565b6000610ecd601183610a90565b9150610ed882610e97565b602082019050919050565b60006020820190508181036000830152610efc81610ec0565b9050919050565b7f4e487b7100000000000000000000000000000000000000000000000000000000600052602260045260246000fd5b60006002820490506001821680610f4a57607f821691505b602082108103610f5d57610f5c610f03565b5b50919050565b7f546865206e616d65206f662070726f647563742073686f756c64206265206d6f60008201527f7265207468616e20352e00000000000000000000000000000000000000000000602082015250565b6000610fbf602a83610a90565b9150610fca82610f63565b604082019050919050565b60006020820190508181036000830152610fee81610fb2565b9050919050565b7f4e487b7100000000000000000000000000000000000000000000000000000000600052601160045260246000fd5b600061102f82610a13565b915061103a83610a13565b9250817fffffffffffffffffffffffffffffffffffffffffffffffffffffffffffffffff048311821515161561107357611072610ff5565b5b828202905092915050565b7f596f7520646f6e2774206861766520656e6f75676874206d6f6e65792e000000600082015250565b60006110b4601d83610a90565b91506110bf8261107e565b602082019050919050565b600060208201905081810360008301526110e3816110a7565b9050919050565b7f5468657265206973206e6f74207468652073746f636b20696e2070726f64756360008201527f742e000000000000000000000000000000000000000000000000000000000000602082015250565b6000611146602283610a90565b9150611151826110ea565b604082019050919050565b6000602082019050818103600083015261117581611139565b9050919050565b600061118782610a13565b915061119283610a13565b9250828210156111a5576111a4610ff5565b5b828203905092915050565b600073ffffffffffffffffffffffffffffffffffffffff82169050919050565b60006111db826111b0565b9050919050565b6111eb816111d0565b82525050565b6000606082019050818103600083015261120b8186610ae5565b905061121a60208301856111e2565b6112276040830184610a76565b949350505050565b600061123a82610a13565b915061124583610a13565b9250827fffffffffffffffffffffffffffffffffffffffffffffffffffffffffffffffff0382111561127a57611279610ff5565b5b828201905092915050565b7f4e487b7100000000000000000000000000000000000000000000000000000000600052601260045260246000fd5b60006112bf82610a13565b91506112ca83610a13565b9250826112da576112d9611285565b5b82820490509291505056fea2646970667358221220045269757da081c9cc3c5fe5c444bbb0f572fc968f3878f137ee75cdac46df2a64736f6c634300080e0033",
  "immutableReferences": {},
  "source": "// SPDX-License-Identifier: GPL-3.0\r\npragma solidity ^0.8.0;\r\n\r\ncontract TestAmazon {\r\n\r\n    struct Product {\r\n        uint id;\r\n        string name;\r\n        uint stock;\r\n        uint price;\r\n    }\r\n\r\n    address private ownerAddress;\r\n    bool private storeClosed = false;\r\n\r\n    event clientBuy(string name, address wallet, uint quantity);\r\n\r\n    mapping(uint => Product) public listProducts;\r\n\r\n    constructor() {\r\n        ownerAddress = msg.sender;\r\n    }\r\n\r\n    /**\r\n     * @dev add new product in listProducts\r\n     * @param productData new Product\r\n     */\r\n    function addProduct(Product memory productData) public onlyOwner closedAmazon {\r\n        require(bytes(productData.name).length > 5, \"The name of product should be more than 5.\");\r\n        listProducts[productData.id] = Product(productData.id, productData.name, 0, productData.price);\r\n    }\r\n\r\n    /**\r\n     * @dev increase quantity for one product in listProducts\r\n     * @param id of product, stock quantity to increase\r\n     */\r\n    function addQuantity(uint id, uint stock) public onlyOwner closedAmazon {\r\n        listProducts[id].stock += stock;\r\n    }\r\n\r\n    /**\r\n     * @dev close and open amazon, change var closed\r\n     * @param state value to set on closed\r\n     */\r\n    function closeOrOpenAmazon(bool state) public onlyOwner {\r\n        storeClosed = state;\r\n    }\r\n\r\n    /**\r\n     * @dev allow buy product for clients\r\n     * @param id of product to buy, quantity of product to buy\r\n     */\r\n    function buyProduct(uint id, uint quantity) public payable closedAmazon {\r\n        Product memory productData = listProducts[id];\r\n        require((quantity * productData.price) <= convertWeiToEther(msg.value), \"You don't have enought money.\");\r\n        require(quantity <= productData.stock, \"There is not the stock in product.\");\r\n        listProducts[productData.id].stock -= quantity;\r\n        emit clientBuy(productData.name, msg.sender, quantity);\r\n        if (quantity > 10) {\r\n            payable(msg.sender).transfer(convertEtherToWei(productData.price));\r\n        }\r\n    }\r\n\r\n    /**\r\n     * @dev owner can withdraw all money of the amazon store\r\n     */\r\n    function withdrawAllMoney() public onlyOwner closedAmazon {\r\n        payable(msg.sender).transfer(address(this).balance);\r\n    }\r\n\r\n    /**\r\n     * @dev convert wei to ether\r\n     * @param amountInWei value in wei to convert\r\n     * @return param value in ether format\r\n     */\r\n    function convertWeiToEther(uint amountInWei) private pure returns (uint) {\r\n        return amountInWei / 1 ether;\r\n    }\r\n\r\n    /**\r\n     * @dev convert ether to wei\r\n     * @param amountInEther value in ether to convert\r\n     * @return param value in wei format\r\n     */\r\n    function convertEtherToWei(uint amountInEther) private pure returns (uint) {\r\n        return amountInEther * 1 ether;\r\n    }\r\n\r\n    // modifier to allow just to owner to do something\r\n    modifier onlyOwner() {\r\n        require(ownerAddress == msg.sender, \"You are not the owner.\");\r\n        _;\r\n    }\r\n\r\n    // modifier to verify if amazon store is closed\r\n    modifier closedAmazon() {\r\n        require(!storeClosed, \"Amazon is closed.\");\r\n        _;\r\n    }\r\n\r\n}\r\n",
  "sourcePath": "C:\\Users\\Ricardo\\Desktop\\New folder\\contracts\\TestAmazon.sol",
  "compiler": {
    "name": "solc",
    "version": "0.8.14+commit.80d49f37.Emscripten.clang"
  },
  "schemaVersion": "3.4.7",
  "updatedAt": "2022-06-20T10:11:31.387Z",
  "networkType": "ethereum",
  "devdoc": {
    "kind": "dev",
    "methods": {
      "addProduct((uint256,string,uint256,uint256))": {
        "details": "add new product in listProducts",
        "params": {
          "productData": "new Product"
        }
      },
      "addQuantity(uint256,uint256)": {
        "details": "increase quantity for one product in listProducts",
        "params": {
          "id": "of product, stock quantity to increase"
        }
      },
      "buyProduct(uint256,uint256)": {
        "details": "allow buy product for clients",
        "params": {
          "id": "of product to buy, quantity of product to buy"
        }
      },
      "closeOrOpenAmazon(bool)": {
        "details": "close and open amazon, change var closed",
        "params": {
          "state": "value to set on closed"
        }
      },
      "withdrawAllMoney()": {
        "details": "owner can withdraw all money of the amazon store"
      }
    },
    "version": 1
  },
  "userdoc": {
    "kind": "user",
    "methods": {},
    "version": 1
  }
}