{
  "contractName": "Notes",
  "abi": [
    {
      "inputs": [],
      "stateMutability": "nonpayable",
      "type": "constructor"
    },
    {
      "anonymous": false,
      "inputs": [
        {
          "indexed": false,
          "internalType": "bytes32",
          "name": "",
          "type": "bytes32"
        }
      ],
      "name": "alumno_evaluado",
      "type": "event"
    },
    {
      "anonymous": false,
      "inputs": [
        {
          "indexed": false,
          "internalType": "string",
          "name": "",
          "type": "string"
        }
      ],
      "name": "evento_revision",
      "type": "event"
    },
    {
      "inputs": [
        {
          "internalType": "bytes32",
          "name": "",
          "type": "bytes32"
        }
      ],
      "name": "Notas",
      "outputs": [
        {
          "internalType": "uint256",
          "name": "",
          "type": "uint256"
        }
      ],
      "stateMutability": "view",
      "type": "function",
      "constant": true
    },
    {
      "inputs": [],
      "name": "profesor",
      "outputs": [
        {
          "internalType": "address",
          "name": "",
          "type": "address"
        }
      ],
      "stateMutability": "view",
      "type": "function",
      "constant": true
    },
    {
      "inputs": [
        {
          "internalType": "string",
          "name": "_idAlumno",
          "type": "string"
        },
        {
          "internalType": "uint256",
          "name": "_nota",
          "type": "uint256"
        }
      ],
      "name": "Evaluar",
      "outputs": [],
      "stateMutability": "nonpayable",
      "type": "function"
    },
    {
      "inputs": [
        {
          "internalType": "string",
          "name": "_idAlumno",
          "type": "string"
        }
      ],
      "name": "VerNotas",
      "outputs": [
        {
          "internalType": "uint256",
          "name": "",
          "type": "uint256"
        }
      ],
      "stateMutability": "view",
      "type": "function",
      "constant": true
    },
    {
      "inputs": [
        {
          "internalType": "string",
          "name": "_idAlumno",
          "type": "string"
        }
      ],
      "name": "Revision",
      "outputs": [],
      "stateMutability": "nonpayable",
      "type": "function"
    },
    {
      "inputs": [],
      "name": "VerRevisiones",
      "outputs": [
        {
          "internalType": "string[]",
          "name": "",
          "type": "string[]"
        }
      ],
      "stateMutability": "view",
      "type": "function",
      "constant": true
    }
  ],
  "bytecode": "0x608060405234801561001057600080fd5b50336000806101000a81548173ffffffffffffffffffffffffffffffffffffffff021916908373ffffffffffffffffffffffffffffffffffffffff160217905550610bf1806100606000396000f3fe608060405234801561001057600080fd5b50600436106100625760003560e01c8063040d9f60146100675780632cd22cd814610083578063315944c51461009f57806333731af6146100cf578063df096576146100ff578063f22044e61461011d575b600080fd5b610081600480360381019061007c91906106e6565b61013b565b005b61009d60048036038101906100989190610742565b61024a565b005b6100b960048036038101906100b491906107c1565b6102c0565b6040516100c691906107fd565b60405180910390f35b6100e960048036038101906100e49190610742565b6102d8565b6040516100f691906107fd565b60405180910390f35b610107610326565b6040516101149190610859565b60405180910390f35b61012561034a565b60405161013291906109be565b60405180910390f35b3360008054906101000a900473ffffffffffffffffffffffffffffffffffffffff1673ffffffffffffffffffffffffffffffffffffffff168173ffffffffffffffffffffffffffffffffffffffff16146101ca576040517f08c379a00000000000000000000000000000000000000000000000000000000081526004016101c190610a63565b60405180910390fd5b6000836040516020016101dd9190610abf565b6040516020818303038152906040528051906020012090508260016000838152602001908152602001600020819055507f9129eeeb684507aca017f10030b70e5bf86d129f417fcc5840348a957eb12cee8160405161023c9190610ae5565b60405180910390a150505050565b6002819080600181540180825580915050600190039060005260206000200160009091909190915090805190602001906102859291906104b3565b507fafd73f39162aa4c0421f362f3a3d26f44b23c73253256cfc1c68794b0973e0a0816040516102b59190610b39565b60405180910390a150565b60016020528060005260406000206000915090505481565b600080826040516020016102ec9190610abf565b6040516020818303038152906040528051906020012090506000600160008381526020019081526020016000205490508092505050919050565b60008054906101000a900473ffffffffffffffffffffffffffffffffffffffff1681565b60603360008054906101000a900473ffffffffffffffffffffffffffffffffffffffff1673ffffffffffffffffffffffffffffffffffffffff168173ffffffffffffffffffffffffffffffffffffffff16146103db576040517f08c379a00000000000000000000000000000000000000000000000000000000081526004016103d290610a63565b60405180910390fd5b6002805480602002602001604051908101604052809291908181526020016000905b828210156104a957838290600052602060002001805461041c90610b8a565b80601f016020809104026020016040519081016040528092919081815260200182805461044890610b8a565b80156104955780601f1061046a57610100808354040283529160200191610495565b820191906000526020600020905b81548152906001019060200180831161047857829003601f168201915b5050505050815260200190600101906103fd565b5050505091505090565b8280546104bf90610b8a565b90600052602060002090601f0160209004810192826104e15760008555610528565b82601f106104fa57805160ff1916838001178555610528565b82800160010185558215610528579182015b8281111561052757825182559160200191906001019061050c565b5b5090506105359190610539565b5090565b5b8082111561055257600081600090555060010161053a565b5090565b6000604051905090565b600080fd5b600080fd5b600080fd5b600080fd5b6000601f19601f8301169050919050565b7f4e487b7100000000000000000000000000000000000000000000000000000000600052604160045260246000fd5b6105bd82610574565b810181811067ffffffffffffffff821117156105dc576105db610585565b5b80604052505050565b60006105ef610556565b90506105fb82826105b4565b919050565b600067ffffffffffffffff82111561061b5761061a610585565b5b61062482610574565b9050602081019050919050565b82818337600083830152505050565b600061065361064e84610600565b6105e5565b90508281526020810184848401111561066f5761066e61056f565b5b61067a848285610631565b509392505050565b600082601f8301126106975761069661056a565b5b81356106a7848260208601610640565b91505092915050565b6000819050919050565b6106c3816106b0565b81146106ce57600080fd5b50565b6000813590506106e0816106ba565b92915050565b600080604083850312156106fd576106fc610560565b5b600083013567ffffffffffffffff81111561071b5761071a610565565b5b61072785828601610682565b9250506020610738858286016106d1565b9150509250929050565b60006020828403121561075857610757610560565b5b600082013567ffffffffffffffff81111561077657610775610565565b5b61078284828501610682565b91505092915050565b6000819050919050565b61079e8161078b565b81146107a957600080fd5b50565b6000813590506107bb81610795565b92915050565b6000602082840312156107d7576107d6610560565b5b60006107e5848285016107ac565b91505092915050565b6107f7816106b0565b82525050565b600060208201905061081260008301846107ee565b92915050565b600073ffffffffffffffffffffffffffffffffffffffff82169050919050565b600061084382610818565b9050919050565b61085381610838565b82525050565b600060208201905061086e600083018461084a565b92915050565b600081519050919050565b600082825260208201905092915050565b6000819050602082019050919050565b600081519050919050565b600082825260208201905092915050565b60005b838110156108da5780820151818401526020810190506108bf565b838111156108e9576000848401525b50505050565b60006108fa826108a0565b61090481856108ab565b93506109148185602086016108bc565b61091d81610574565b840191505092915050565b600061093483836108ef565b905092915050565b6000602082019050919050565b600061095482610874565b61095e818561087f565b93508360208202850161097085610890565b8060005b858110156109ac578484038952815161098d8582610928565b94506109988361093c565b925060208a01995050600181019050610974565b50829750879550505050505092915050565b600060208201905081810360008301526109d88184610949565b905092915050565b600082825260208201905092915050565b7f4e6f207469656e6573207065726d69736f73207061726120656a65637574617260008201527f20657374612066756e63696f6e2e000000000000000000000000000000000000602082015250565b6000610a4d602e836109e0565b9150610a58826109f1565b604082019050919050565b60006020820190508181036000830152610a7c81610a40565b9050919050565b600081905092915050565b6000610a99826108a0565b610aa38185610a83565b9350610ab38185602086016108bc565b80840191505092915050565b6000610acb8284610a8e565b915081905092915050565b610adf8161078b565b82525050565b6000602082019050610afa6000830184610ad6565b92915050565b6000610b0b826108a0565b610b1581856109e0565b9350610b258185602086016108bc565b610b2e81610574565b840191505092915050565b60006020820190508181036000830152610b538184610b00565b905092915050565b7f4e487b7100000000000000000000000000000000000000000000000000000000600052602260045260246000fd5b60006002820490506001821680610ba257607f821691505b602082108103610bb557610bb4610b5b565b5b5091905056fea2646970667358221220c989dbf5869b7d277d95ccb73c0f81b217082820317815f1ff94cbf0c95fe50764736f6c634300080e0033",
  "immutableReferences": {},
  "source": "// SPDX-License-Identifier: MIT\r\npragma solidity  ^0.8.0;\r\n\r\n// -----------------------------------\r\n//  ALUMNO   |    ID    |      NOTA\r\n// -----------------------------------\r\n//  Marcos |    77755N    |      5\r\n//  Joan   |    12345X    |      9\r\n//  Maria  |    02468T    |      2\r\n//  Marta  |    13579U    |      3\r\n//  Alba   |    98765Z    |      5\r\n\r\ncontract Notes {\r\n\r\n    // Direccion del profesor\r\n    address public profesor;\r\n\r\n    // Mapping para relacionar el hash de la identidad del alumno con su nota del examen\r\n    mapping (bytes32 => uint) public Notas;\r\n\r\n    // Array de los alumnos de pidan revisiones de examen\r\n    string [] revisiones;\r\n\r\n    // Eventos\r\n    event alumno_evaluado(bytes32);\r\n    event evento_revision(string);\r\n\r\n    // Constructor\r\n    constructor () {\r\n        profesor = msg.sender;\r\n    }\r\n\r\n    // Funcion para evaluar a alumnos\r\n    function Evaluar(string memory _idAlumno, uint _nota) public UnicamenteProfesor(msg.sender){\r\n        // Hash de la identificacion del alumno\r\n        bytes32 hash_idAlumno = keccak256(abi.encodePacked(_idAlumno));\r\n        // Relacion entre el hash de la identificacion del alumno y su nota\r\n        Notas[hash_idAlumno] = _nota;\r\n        // Emision del evento\r\n        emit alumno_evaluado(hash_idAlumno);\r\n    }\r\n\r\n    // Control de las funciones ejecutables por el profesor\r\n    modifier UnicamenteProfesor(address _direccion){\r\n        // Requiere que la direccion introducido por parametro sea igual al owner del contrato\r\n        require(_direccion == profesor, \"No tienes permisos para ejecutar esta funcion.\");\r\n        _;\r\n    }\r\n\r\n    // Funcion para ver las notas de un alumno\r\n    function VerNotas(string memory _idAlumno) public view returns(uint) {\r\n        // Hash de la identificacion del alumno\r\n        bytes32 hash_idAlumno = keccak256(abi.encodePacked(_idAlumno));\r\n        // Nota asociada al hash del alumno\r\n        uint nota_alumno = Notas[hash_idAlumno];\r\n        // Visualizar la nota\r\n        return nota_alumno;\r\n    }\r\n\r\n    // Funcion para pedir una revision del examen\r\n    function Revision(string memory _idAlumno) public {\r\n        // Almacenamiento de la identidad del alumno en un array\r\n        revisiones.push(_idAlumno);\r\n        // Emision del evento\r\n        emit evento_revision(_idAlumno);\r\n    }\r\n\r\n    // Funcion para ver los alumnos que han solicitado revision de examen\r\n    function VerRevisiones() public view UnicamenteProfesor(msg.sender) returns (string [] memory){\r\n        // Devolver las identidades de los alumnos\r\n        return revisiones;\r\n    }\r\n\r\n}\r\n",
  "sourcePath": "D:\\Projects\\Projects UPB\\blockchain-course-2022\\contracts\\Notes.sol",
  "compiler": {
    "name": "solc",
    "version": "0.8.14+commit.80d49f37.Emscripten.clang"
  },
  "schemaVersion": "3.4.7",
  "updatedAt": "2022-06-10T01:30:27.695Z",
  "networkType": "ethereum",
  "devdoc": {
    "kind": "dev",
    "methods": {},
    "version": 1
  },
  "userdoc": {
    "kind": "user",
    "methods": {},
    "version": 1
  }
}